:020000040800F2
:10000000600600201D0200082502000827020008E3
:10001000290200082B0200082D0200080000000041
:100020000000000000000000000000002F02000897
:100030003102000800000000330200083502000809
:1000400037020008370200083702000837020008AC
:10005000370200083702000837020008370200089C
:10006000370200083702000837020008370200088C
:10007000370200083702000837020008370200087C
:1000800037020008370200083702000800000000AD
:10009000000000000000000000000000370200081F
:1000A000370200083702000837020008370200084C
:1000B000370200083702000837020008370200083C
:1000C000370200083702000837020008370200082C
:1000D000370200083702000837020008000000005D
:1000E000370200083702000837020008000000004D
:1000F00000000000000000000000000037020008BF
:10010000000000003702000837020008370200082C
:1001100000000000000000000000000000000000DF
:1001200037020008370200083702000837020008CB
:10013000370200080000000000000000000000007E
:10014000000000000000000000000000370200086E
:10015000370200083702000837020008370200089B
:10016000370200083702000800000000000000000D
:10017000000000000000000000000000000000007F
:10018000000000003702000800000000000000002E
:10019000370200083702000800F002F800F02EF8DD
:1001A0000AA090E8000C82448344AAF10107DA45D2
:1001B00001D100F023F8AFF2090EBAE80F0013F0F6
:1001C000010F18BFFB1A43F001031847900200000B
:1001D000A00200000023002400250026103A28BFBA
:1001E00078C1FBD8520728BF30C148BF0B607047A9
:1001F0001FB500F02DF91FBD10B510BD00F031F88E
:100200001146FFF7F5FF00F00BF900F04FF803B4CB
:10021000FFF7F2FF03BC00F057F8000009488047E1
:1002200009480047FEE7FEE7FEE7FEE7FEE7FEE7D8
:10023000FEE7FEE7FEE7FEE704480549054A064BF0
:10024000704700007D03000899010008600000204D
:1002500060060020600200206002002070477047A6
:100260007047754600F02CF8AE46050069465346C7
:1002700020F00700854618B020B5FFF7DDFFBDE888
:1002800020404FF000064FF000074FF000084FF0FD
:10029000000B21F00701AC46ACE8C009ACE8C0098E
:1002A000ACE8C009ACE8C0098D46704710B50446FB
:1002B000AFF300802046BDE81040FFF7A8BF000064
:1002C000004870470000002001491820ABBEFEE73F
:1002D000260002007047000001460648006800F052
:1002E000020008B9002070470248C06C0870012065
:1002F000F9E70000002001401148006840F48070D8
:100300000F4908600F48006840F400000E49C1F82A
:1003100004030846C06840F0E060C8600846C06A50
:1003200020F47000C8620846406B20F01F0040F0C7
:10033000120048630548486001208860704700004B
:10034000443802400423014000200140000800021C
:100350000548006820F002000349086008468068EC
:1003600040F080408860704700200140024800E073
:10037000401E0028FCD1704700093D00034800687A
:1003800040F47000014908607047000088ED00E00B
:100390001848006840F00100164908601548103000
:1003A000006840F4003013491031086012480068BA
:1003B00020F0F00040F0A0000F49086008464068B7
:1003C00020F0F00048600846806820F0F00040F01F
:1003D000A00088600846006A20F47F4040F4EE40A8
:1003E000086240F283600549086042F20C00091D72
:1003F0000860704730380240000002400844004066
:1004000001460648006800F0800008B900207047E7
:100410000248001D01600120F9E70000004400408F
:1004200008B5FFF7B5FFFFF767FF10E0FFF790FF94
:1004300000BF6846FFF750FF0028FAD000BF9DF8C4
:100440000000FFF7DDFF0028F9D0FFF78FFFEDE791
:100450004FF04070E1EE100A704700006C04000895
:0C0460000000002060060000D40100082D
:040000050800019955
:00000001FF
