:020000040800F2
:10000000600600201D0200082502000827020008E3
:10001000290200082B0200082D0200080000000041
:100020000000000000000000000000002F02000897
:100030003102000800000000330200083502000809
:1000400037020008370200083702000837020008AC
:10005000370200083702000837020008370200089C
:10006000370200083702000837020008370200088C
:10007000370200083702000837020008370200087C
:1000800037020008370200083702000800000000AD
:10009000000000000000000000000000370200081F
:1000A000370200083702000837020008370200084C
:1000B0003702000859030008370200083702000819
:1000C000370200083702000837020008370200082C
:1000D000370200083702000837020008000000005D
:1000E000370200083702000837020008000000004D
:1000F00000000000000000000000000037020008BF
:10010000000000003702000837020008370200082C
:1001100000000000000000000000000000000000DF
:1001200037020008370200083702000837020008CB
:10013000370200080000000000000000000000007E
:10014000000000000000000000000000370200086E
:10015000370200083702000837020008370200089B
:10016000370200083702000800000000000000000D
:10017000000000000000000000000000000000007F
:10018000000000003702000800000000000000002E
:10019000370200083702000800F002F800F02EF8DD
:1001A0000AA090E8000C82448344AAF10107DA45D2
:1001B00001D100F023F8AFF2090EBAE80F0013F0F6
:1001C000010F18BFFB1A43F0010318471802000083
:1001D000280200000023002400250026103A28BF32
:1001E00078C1FBD8520728BF30C148BF0B607047A9
:1001F0001FB500F0F1F81FBD10B510BD00F031F8CB
:100200001146FFF7F5FF00F0E1F800F04FF803B4F6
:10021000FFF7F2FF03BC00F057F8000009488047E1
:1002200009480047FEE7FEE7FEE7FEE7FEE7FEE7D8
:10023000FEE7FEE7FEE7FEE704480549054A064BF0
:100240007047000045030008990100086000002085
:1002500060060020600200206002002070477047A6
:100260007047754600F02CF8AE46050069465346C7
:1002700020F00700854618B020B5FFF7DDFFBDE888
:1002800020404FF000064FF000074FF000084FF0FD
:10029000000B21F00701AC46ACE8C009ACE8C0098E
:1002A000ACE8C009ACE8C0098D46704710B50446FB
:1002B000AFF300802046BDE81040FFF7A8BF000064
:1002C000004870470000002001491820ABBEFEE73F
:1002D00026000200704700001248006840F0040049
:1002E000104908601048006820F0C00040F040004D
:1002F0000E490860081D006820F00800091D08600C
:100300000948806820F0C00040F08000091D0860A6
:1003100006481430006840F00800044914310860B1
:1003200070470000303802400000024000080240E0
:100330000348006880F00800014908607047000029
:10034000140802400348006840F470000149086046
:100350007047000088ED00E000B50448006820F018
:10036000010002490860FFF7E3FF00BD10040040F0
:100370001348006840F002001149086080201149CC
:10038000086043F67F600F492C3108600011091F97
:1003900008600C480C30006840F0010009490C313D
:1003A00008600948006840F000504FF0E021C1F8B3
:1003B00000010448006840F00100024908607047ED
:1003C000403802400004004000E100E0FFF784FFF5
:1003D000FFF7CEFF00BFFEE74FF04070E1EE100ADE
:1003E00070470000F40300080000002060060000D1
:0403F000D40100082C
:040000050800019955
:00000001FF
