:020000040800F2
:10000000600600201D0200082502000827020008E3
:10001000290200082B0200082D0200080000000041
:100020000000000000000000000000002F02000897
:100030003102000800000000330200083502000809
:1000400037020008370200083702000837020008AC
:10005000370200083702000837020008370200089C
:10006000370200083702000837020008370200088C
:10007000370200083702000837020008370200087C
:1000800037020008370200083702000800000000AD
:10009000000000000000000000000000370200081F
:1000A000370200083702000837020008370200084C
:1000B000370200083702000837020008370200083C
:1000C000370200083702000837020008370200082C
:1000D000370200083702000837020008000000005D
:1000E000370200083702000837020008000000004D
:1000F00000000000000000000000000037020008BF
:10010000000000003702000837020008370200082C
:1001100000000000000000000000000000000000DF
:1001200037020008370200083702000837020008CB
:10013000370200080000000000000000000000007E
:10014000000000000000000000000000370200086E
:10015000370200083702000837020008370200089B
:10016000370200083702000800000000000000000D
:10017000000000000000000000000000000000007F
:10018000000000003702000800000000000000002E
:10019000370200083702000800F002F800F02EF8DD
:1001A0000AA090E8000C82448344AAF10107DA45D2
:1001B00001D100F023F8AFF2090EBAE80F0013F0F6
:1001C000010F18BFFB1A43F001031847000200009B
:1001D000100200000023002400250026103A28BF4A
:1001E00078C1FBD8520728BF30C148BF0B607047A9
:1001F0001FB500F0E5F81FBD10B510BD00F031F8D7
:100200001146FFF7F5FF00F0D5F800F04FF803B402
:10021000FFF7F2FF03BC00F057F8000009488047E1
:1002200009480047FEE7FEE7FEE7FEE7FEE7FEE7D8
:10023000FEE7FEE7FEE7FEE704480549054A064BF0
:10024000704700003D03000899010008600000208D
:1002500060060020600200206002002070477047A6
:100260007047754600F02CF8AE46050069465346C7
:1002700020F00700854618B020B5FFF7DDFFBDE888
:1002800020404FF000064FF000074FF000084FF0FD
:10029000000B21F00701AC46ACE8C009ACE8C0098E
:1002A000ACE8C009ACE8C0098D46704710B50446FB
:1002B000AFF300802046BDE81040FFF7A8BF000064
:1002C000004870470000002001491820ABBEFEE73F
:1002D00026000200704700001648006840F0040045
:1002E000144908601448006820F4402040F40020BD
:1002F00011490860081D006820F40070091D08609D
:100300000D480C30006820F440200B490C31086087
:10031000081F006820F4402040F48020091F086076
:100320000548406A20F0F00040F020010248416298
:10033000704700003038024000080240034800685F
:1003400040F47000014908607047000088ED00E04B
:100350001648006840F002001449086080201449E3
:10036000086042F6DF6012492C31086040F2CF701D
:10037000091F08600E481C30006820F47F4040F4DC
:10038000D0400B491C310860081D006840F48050C3
:10039000091D08604FF4FA500549403108600448CF
:1003A000006840F001000249086070474038024090
:1003B00000040040FFF790FFFFF7CAFF00BFFEE711
:1003C0004FF04070E1EE100A70470000DC030008B7
:0C03D0000000002060060000D4010008BE
:040000050800019955
:00000001FF
