:020000040800F2
:100000006806002039020008410200084302000887
:1000100045020008470200084902000800000000ED
:100020000000000000000000000000004B0200087B
:100030004D020008000000004F02000851020008B5
:10004000530200085302000853020008530200083C
:10005000530200085302000853020008530200082C
:10006000530200085302000853020008530200081C
:10007000530200085302000853020008530200080C
:100080005302000853020008530200080000000059
:100090000000000000000000000000005302000803
:1000A00053020008530200085302000853020008DC
:1000B00053020008A104000853020008530200087C
:1000C00053020008530200085302000853020008BC
:1000D0005302000853020008530200080000000009
:1000E0002D0300085302000853020008000000001E
:1000F00000000000000000000000000053020008A3
:1001000000000000530200085302000853020008D8
:1001100000000000000000000000000000000000DF
:10012000530200085302000853020008530200085B
:100130005302000800000000000000000000000062
:100140000000000000000000000000005302000852
:10015000530200085302000853020008530200082B
:1001600053020008530200080000000000000000D5
:10017000000000000000000000000000000000007F
:100180000000000053020008000000000000000012
:10019000530200085302000800F002F800F03CF897
:1001A0000AA090E8000C82448344AAF10107DA45D2
:1001B00001D100F031F8AFF2090EBAE80F0013F0E8
:1001C000010F18BFFB1A43F0010318476803000032
:1001D00088030000103A24BF78C878C1FAD85207C3
:1001E00024BF30C830C144BF04680C6070470000B1
:1001F0000023002400250026103A28BF78C1FBD830
:10020000520728BF30C148BF0B6070471FB500F0D0
:100210008BF91FBD10B510BD00F031F81146FFF786
:10022000F5FF00F077F900F04FF803B4FFF7F2FFA5
:1002300003BC00F057F80000094880470948004710
:10024000FEE7FEE7FEE7FEE7FEE7FEE7FEE7FEE786
:10025000FEE7FEE704480549054A064B70470000E3
:100260008D0400089901000868000020680600203D
:10027000680200206802002070477047704775468A
:1002800000F02CF8AE4605006946534620F0070002
:10029000854618B020B5FFF7DDFFBDE820404FF0E0
:1002A00000064FF000074FF000084FF0000B21F060
:1002B0000701AC46ACE8C009ACE8C009ACE8C0092D
:1002C000ACE8C0098D46704710B50446AFF3008016
:1002D0002046BDE81040FFF7A8BF00000048704767
:1002E0000400002001491820ABBEFEE726000200F2
:1002F000704700000B48006840F00400094908609E
:100300000948006820F040600749086006480C3042
:10031000006820F0406040F0806003490C310860C4
:100320007047000030380240000802401F48006853
:1003300040F400501D4908601D480068401C1C49DD
:10034000086008460068032190FBF1F201FB1200EF
:10035000012807D143F67F60164908600011091F84
:10036000086021E012480068032190FBF1F201FBD4
:100370001200022808D14BF67F300E49086040F287
:10038000E730091F08600FE009480068032190FB6F
:10039000F1F201FB120038B943F67F6005490860AD
:1003A00041F28730091F086070470000143C01408B
:1003B000000000202C0400401648006840F00400B3
:1003C0001449086013481430006840F48040114913
:1003D000143108601048406920F0F00040F020011E
:1003E0000D4841610D48006840F400500B49086019
:1003F0000A480C30006840F4005008490C3108608D
:100400000748006840F480704FF0E021C1F8040113
:10041000704700003038024000380140003C014085
:1004200004E100E01248006840F004001049086050
:100430001048006820F4401040F480100D49086016
:10044000081D006820F48060091D0860081D006810
:1004500020F4401040F40010091D086005481430D5
:10046000006840F480600349143108607047000060
:1004700030380240000802400348006880F4806081
:1004800001490860704700001408024003480068F2
:1004900040F47000014908607047000088ED00E0FA
:1004A00000B50448006820F0010002490860FFF729
:1004B000E3FF00BD100400401348006840F0020054
:1004C0001149086080201149086043F67F600F4998
:1004D0002C3108600011091F08600C480C300068BE
:1004E00040F0010009490C3108600948006840F0FB
:1004F00000504FF0E021C1F800010448006840F0CE
:100500000100024908607047403802400004004082
:1005100000E100E0FFF786FFFFF7ECFEFFF7CCFFFE
:10052000FFF74AFF00BFFEE74FF04070E1EE100A10
:10053000704700005405000800000020040000007F
:10054000D4010008580500080400002064060000DB
:08055000F001000801000000A9
:040000050800019955
:00000001FF
