:020000040800F2
:10000000600600201D0200082502000827020008E3
:10001000290200082B0200082D0200080000000041
:100020000000000000000000000000002F02000897
:100030003102000800000000330200083502000809
:1000400037020008370200083702000837020008AC
:10005000370200083702000837020008370200089C
:10006000370200083702000837020008370200088C
:10007000370200083702000837020008370200087C
:1000800037020008370200083702000800000000AD
:10009000000000000000000000000000370200081F
:1000A000370200083702000837020008370200084C
:1000B000370200083702000837020008370200083C
:1000C000370200083702000837020008370200082C
:1000D000370200083702000837020008000000005D
:1000E000370200083702000837020008000000004D
:1000F00000000000000000000000000037020008BF
:10010000000000003702000837020008370200082C
:1001100000000000000000000000000000000000DF
:1001200037020008370200083702000837020008CB
:10013000370200080000000000000000000000007E
:10014000000000000000000000000000370200086E
:10015000370200083702000837020008370200089B
:10016000370200083702000800000000000000000D
:10017000000000000000000000000000000000007F
:10018000000000003702000800000000000000002E
:10019000370200083702000800F002F800F02EF8DD
:1001A0000AA090E8000C82448344AAF10107DA45D2
:1001B00001D100F023F8AFF2090EBAE80F0013F0F6
:1001C000010F18BFFB1A43F001031847F8020000A3
:1001D000080300000023002400250026103A28BF51
:1001E00078C1FBD8520728BF30C148BF0B607047A9
:1001F0001FB500F062F91FBD10B510BD00F031F859
:100200001146FFF7F5FF00F03DF900F04FF803B499
:10021000FFF7F2FF03BC00F057F8000009488047E1
:1002200009480047FEE7FEE7FEE7FEE7FEE7FEE7D8
:10023000FEE7FEE7FEE7FEE704480549054A064BF0
:1002400070470000D90200089901000860000020F2
:1002500060060020600200206002002070477047A6
:100260007047754600F02CF8AE46050069465346C7
:1002700020F00700854618B020B5FFF7DDFFBDE888
:1002800020404FF000064FF000074FF000084FF0FD
:10029000000B21F00701AC46ACE8C009ACE8C0098E
:1002A000ACE8C009ACE8C0098D46704710B50446FB
:1002B000AFF300802046BDE81040FFF7A8BF000064
:1002C000004870470000002001491820ABBEFEE73F
:1002D00026000200704700000348006840F47000E8
:1002E000014908607047000088ED00E0094A126883
:1002F00022F00102074B883BC3F888201A46C2F857
:100300009400C2F88C10D2F8882042F00102C3F8A1
:1003100088207047886002400C48006840F4001054
:100320000A4908600A48006840F04000084908602F
:100330000020084908600648103806498839C1F885
:1003400090000548034908607047000030380240BB
:1003500014440040886002400004030807484068D5
:1003600000F4006008B9002070470448C06840F4F9
:1003700000600249C8600120F6E70000006002400A
:10038000094A126822F00102074BA03BC3F8A020E3
:100390001A46C2F8AC00C2F8A410D2F8A02042F06D
:1003A0000102C3F8A0207047A06002400C4800681A
:1003B00040F400100A4908600A48006840F08000D4
:1003C00008490860002008490860064810380649B6
:1003D000A039C1F8A800054803490860704700002B
:1003E0003038024014440040A0600240400403083A
:1003F0000748406800F4001008B90020704704481E
:10040000C06840F400100249C8600120F6E700000F
:10041000006002401848006840F00100164908607A
:1004200015481030006840F400301349103108605E
:100430001248006820F0F00040F0A0000F4908606A
:100440000846406820F0F00048600846806820F0C8
:10045000F00040F0A00088600846006A20F47F4069
:1004600040F4EE40086240F283600549086042F2C1
:100470000C00091D0860704730380240000002403F
:10048000084400400CB5FFF7C5FFFFF78FFFFFF7EB
:1004900043FF11E008216846FFF728FF00BFFFF780
:1004A0005DFF0028FBD008216846FFF769FF00BF09
:1004B000FFF79EFF0028FBD0ECE74FF04070E1EE25
:1004C000100A7047D40400080000002060060000F5
:0404D000D40100084B
:040000050800019955
:00000001FF
