:020000040800F2
:100000009806002039020008410200084302000857
:1000100045020008470200084902000800000000ED
:100020000000000000000000000000004B0200087B
:100030004D020008000000004F02000851020008B5
:10004000530200085302000853020008530200083C
:10005000530200085302000853020008530200082C
:10006000530200085302000853020008530200081C
:10007000530200085302000853020008530200080C
:100080005302000853020008530200080000000059
:100090000000000000000000000000005302000803
:1000A00053020008530200085302000853020008DC
:1000B00053020008A9040008530200085302000874
:1000C00053020008530200085302000853020008BC
:1000D00053020008530200086505000800000000F4
:1000E0002D0300085302000853020008000000001E
:1000F00000000000000000000000000053020008A3
:1001000000000000530200085302000853020008D8
:1001100000000000000000000000000000000000DF
:10012000530200085302000853020008530200085B
:100130005302000800000000000000000000000062
:100140000000000000000000000000005302000852
:10015000530200085302000853020008530200082B
:1001600053020008530200080000000000000000D5
:10017000000000000000000000000000000000007F
:100180000000000053020008000000000000000012
:10019000530200085302000800F002F800F03CF897
:1001A0000AA090E8000C82448344AAF10107DA45D2
:1001B00001D100F031F8AFF2090EBAE80F0013F0E8
:1001C000010F18BFFB1A43F001031847F0040000A9
:1001D00010050000103A24BF78C878C1FAD8520739
:1001E00024BF30C830C144BF04680C6070470000B1
:1001F0000023002400250026103A28BF78C1FBD830
:10020000520728BF30C148BF0B6070471FB500F0D0
:100210004FFA1FBD10B510BD00F031F81146FFF7C1
:10022000F5FF00F037FA00F04FF803B4FFF7F2FFE4
:1002300003BC00F057F80000094880470948004710
:10024000FEE7FEE7FEE7FEE7FEE7FEE7FEE7FEE786
:10025000FEE7FEE704480549054A064B70470000E3
:1002600095040008990100089800002098060020D5
:10027000980200209802002070477047704775462A
:1002800000F02CF8AE4605006946534620F0070002
:10029000854618B020B5FFF7DDFFBDE820404FF0E0
:1002A00000064FF000074FF000084FF0000B21F060
:1002B0000701AC46ACE8C009ACE8C009ACE8C0092D
:1002C000ACE8C0098D46704710B50446AFF3008016
:1002D0002046BDE81040FFF7A8BF00000048704767
:1002E0003400002001491820ABBEFEE726000200C2
:1002F000704700000B48006840F00400094908609E
:100300000948006820F040600749086006480C3042
:10031000006820F0406040F0806003490C310860C4
:1003200070470000303802400008024000B50B481A
:10033000006840F400500949086009480068C0F1AD
:1003400001000749086000BF0649054A1268885C39
:1003500000F090F90028F7D000BD0000143C0140E7
:1003600000000020040000201648006840F004004F
:100370001449086013481430006840F48040114963
:10038000143108601048406920F0F00040F020016E
:100390000D4841610D48006840F400500B49086069
:1003A0000A480C30006840F4005008490C310860DD
:1003B0000748006840F480704FF0E021C1F8040164
:1003C000704700003038024000380140003C0140D6
:1003D00004E100E000280DDB09280BDC094909686D
:1003E00040F638729143084A52F820201143054ADA
:1003F000116006E00349096840F638721143014A6A
:1004000011607047140802400800002000B51B4826
:10041000006840F00400194908601948006819494B
:1004200008401949084316490860081D006840F64D
:10043000387108431249091D0860081D00681149F8
:1004400008400F4908310860081D00680D49084040
:100450000B490C3108600A481430006840F63871C6
:10046000084307491431086000BF0849084A126868
:10047000885C00F0FFF80028F7D000BD303802405B
:10048000000802403FF000FF400555000400002036
:10049000000000200348006840F470000149086033
:1004A0007047000088ED00E000B51448006820F0B7
:1004B0000100124908601248006828B91148006814
:1004C000401C1049086004E00E480068401E0D49B9
:1004D00008600C480068002804DA0A4800680A30FE
:1004E00008490860074800680A2190FBF1F201FB07
:1004F00012031846FFF76EFF00BD00001004004015
:1005000000000020300000201348006840F0020086
:100510001149086080201149086043F67F600F4947
:100520002C3108600011091F08600C480C3000686D
:1005300040F0010009490C3108600948006840F0AA
:1005400000504FF0E021C1F800010448006840F07D
:100550000100024908607047403802400004004032
:1005600000E100E01B480068C0B2313805282ED2F7
:10057000DFE800F0030B131C240043F67F601649EC
:1005800008600011091F086021E047F6FF4012498A
:1005900008604011091F086019E04BF67F300E49D2
:1005A000086040F2E730091F086010E043F67F6002
:1005B000094908608010091F086008E043F67F6061
:1005C0000549086041F28730091F086000BF00BF7D
:1005D00070470000044400402C04004018480068A4
:1005E00040F001001649086015481030006840F4DA
:1005F00000301349103108601248006820F0F00004
:1006000040F0A0000F4908600846406820F0F00064
:1006100048600846806820F0F00040F0A000886044
:100620000846006A20F47F4040F4EE40086240F241
:1006300083600549086042F20C00091D086070479C
:10064000303802400000024008440040074800687B
:1006500040F02000054908600548006840F040006F
:100660004FF0E021C1F80401704700000C44004045
:1006700004E100E001460648006800F0800008B987
:10068000002070470248001D01600120F9E70000CA
:1006900000440040FFF7A2FFFFF7D8FFFFF72AFE54
:1006A000FFF762FEFFF7B2FEFFF72EFF00BFFEE787
:1006B0004FF04070E1EE100A70470000DC060008C1
:1006C0000000002034000000D401000810070008DA
:1006D0003400002064060000F00100080000000063
:1006E0004C52000000080000080F00002004000029
:1006F00000060000080300001002000010000000C7
:10070000000F0000000000000002000000000000D8
:040000050800019955
:00000001FF
