:020000040800F2
:10000000F8060020390200084102000843020008F7
:1000100045020008470200084902000800000000ED
:100020000000000000000000000000004B0200087B
:100030004D020008000000004F02000851020008B5
:10004000530200085302000853020008530200083C
:10005000530200085302000853020008530200082C
:10006000530200085302000853020008530200081C
:10007000530200085302000853020008530200080C
:100080005302000853020008530200080000000059
:100090000000000000000000000000005302000803
:1000A00053020008530200085302000853020008DC
:1000B00053020008530200085302000853020008CC
:1000C00053020008530200085302000853020008BC
:1000D0005302000853020008530200080000000009
:1000E00053020008530200085302000800000000F9
:1000F00000000000000000000000000053020008A3
:1001000000000000530200085302000853020008D8
:1001100000000000000000000000000000000000DF
:10012000530200085302000853020008530200085B
:100130005302000800000000000000000000000062
:100140000000000000000000000000005302000852
:10015000530200085302000853020008530200082B
:1001600053020008530200080000000000000000D5
:10017000000000000000000000000000000000007F
:100180000000000053020008000000000000000012
:10019000530200085302000800F002F800F03CF897
:1001A0000AA090E8000C82448344AAF10107DA45D2
:1001B00001D100F031F8AFF2090EBAE80F0013F0E8
:1001C000010F18BFFB1A43F0010318477403000026
:1001D00094030000103A24BF78C878C1FAD85207B7
:1001E00024BF30C830C144BF04680C6070470000B1
:1001F0000023002400250026103A28BF78C1FBD830
:10020000520728BF30C148BF0B6070471FB500F0D0
:100210008BF91FBD10B510BD00F031F81146FFF786
:10022000F5FF00F02FF900F04FF803B4FFF7F2FFED
:1002300003BC00F057F80000094880470948004710
:10024000FEE7FEE7FEE7FEE7FEE7FEE7FEE7FEE786
:10025000FEE7FEE704480549054A064B70470000E3
:100260007104000899010008F8000020F806002039
:10027000F8020020F802002070477047704775466A
:1002800000F02CF8AE4605006946534620F0070002
:10029000854618B020B5FFF7DDFFBDE820404FF0E0
:1002A00000064FF000074FF000084FF0000B21F060
:1002B0000701AC46ACE8C009ACE8C009ACE8C0092D
:1002C000ACE8C0098D46704710B50446AFF3008016
:1002D0002046BDE81040FFF7A8BF00000048704767
:1002E0009800002001491820ABBEFEE7260002005E
:1002F0007047000002480068C0F3403070470000BB
:10030000100802400B48006840F0040009490860EA
:100310000948006820F040600749086006480C3032
:10032000006820F0406040F0806003490C310860B4
:10033000704700003038024000080240144800684E
:1003400040F00400124908601248006820F0407034
:1003500040F080700F490860081D006820F480504C
:10036000091D0860081D006820F04070091D086024
:10037000081D006820F04070091D08600548143011
:10038000006820F480500349143108607047000071
:1003900030380240000802400348006880F4805072
:1003A00001490860704700001408024005490968C7
:1003B00040F638729143044A52F820201143014A12
:1003C00011607047140802408000002000280DDBF7
:1003D00009280BDC0949096840F638729143084A3C
:1003E00052F820201143054A116006E003490968CC
:1003F00040F638721143014A1160704714080240F8
:10040000000000201648006840F00400144908600D
:100410001448006814490840144908431149086009
:10042000081D006840F6387108430E49091D086030
:10043000081D00680C4908400A4908310860081D79
:1004400000680949084007490C3108600548143024
:10045000006840F63871084302491431086070475B
:1004600030380240000802403FF000FF40055500D0
:100470000348006840F470000149086070470000BC
:1004800088ED00E00EB5254AD2E900109268CDE96A
:100490000102009101270023FFF750FFFFF7B2FF91
:1004A000FFF730FF38E000242DE0032093FBF0F14C
:1004B00000FB1130022811DA032093FBF0F100FB5E
:1004C000113000EB400101EBC000154901EB800049
:1004D00050F824804046FFF779FF02E02046FFF7FE
:1004E00065FF002609E0FFF705FF05461DB917B1B6
:1004F0005B1C4FF0FF342F46761C0A488642F2DB25
:10050000FFF74AFF641C032093FBF0F100FB11305E
:100510005DF82000A042C8DCC5E7000034050008F3
:1005200028000020801A06004FF04070E1EE100A0B
:10053000704700000B0000000A00000006000000E9
:10054000600500080000002098000000D4010008A9
:10055000F80500089800002060060000F00100087F
:1005600000080000080F0000200400000006000042
:10057000080300001002000010000000000F00003F
:100580000000000000020000020000000100000066
:100590000000000000000000090000000100000051
:1005A000090000000000000000000000070000003B
:1005B0000500000000000000010000000200000033
:1005C0000300000004000000050000000600000019
:1005D0000700000008000000090000000A000000F9
:1005E000300F0000280F0000180F0000380E000028
:0805F000380D0000380B00007B
:040000050800019955
:00000001FF
