:020000040800F2
:100000006806002039020008410200084302000887
:1000100045020008470200084902000800000000ED
:100020000000000000000000000000004B0200087B
:100030004D020008000000004F02000851020008B5
:10004000530200085302000853020008530200083C
:10005000530200085302000853020008530200082C
:10006000530200085302000853020008530200081C
:10007000530200085302000853020008530200080C
:100080005302000853020008530200080000000059
:100090000000000000000000000000005302000803
:1000A00053020008530200085302000853020008DC
:1000B00053020008530200085302000853020008CC
:1000C00053020008530200085302000853020008BC
:1000D0005302000853020008530200080000000009
:1000E00053020008530200085302000800000000F9
:1000F00000000000000000000000000053020008A3
:1001000000000000530200085302000853020008D8
:1001100000000000000000000000000000000000DF
:10012000530200085302000853020008530200085B
:100130005302000800000000000000000000000062
:100140000000000000000000000000005302000852
:10015000530200085302000853020008530200082B
:1001600053020008530200080000000000000000D5
:10017000000000000000000000000000000000007F
:100180000000000053020008000000000000000012
:10019000530200085302000800F002F800F03CF897
:1001A0000AA090E8000C82448344AAF10107DA45D2
:1001B00001D100F031F8AFF2090EBAE80F0013F0E8
:1001C000010F18BFFB1A43F0010318472C0200006F
:1001D0004C020000103A24BF78C878C1FAD8520700
:1001E00024BF30C830C144BF04680C6070470000B1
:1001F0000023002400250026103A28BF78C1FBD830
:10020000520728BF30C148BF0B6070471FB500F0D0
:10021000EDF81FBD10B510BD00F031F81146FFF725
:10022000F5FF00F0DDF800F04FF803B4FFF7F2FF40
:1002300003BC00F057F80000094880470948004710
:10024000FEE7FEE7FEE7FEE7FEE7FEE7FEE7FEE786
:10025000FEE7FEE704480549054A064B70470000E3
:10026000CD030008990100086800002068060020FE
:10027000680200206802002070477047704775468A
:1002800000F02CF8AE4605006946534620F0070002
:10029000854618B020B5FFF7DDFFBDE820404FF0E0
:1002A00000064FF000074FF000084FF0000B21F060
:1002B0000701AC46ACE8C009ACE8C009ACE8C0092D
:1002C000ACE8C0098D46704710B50446AFF3008016
:1002D0002046BDE81040FFF7A8BF00000048704767
:1002E0000800002001491820ABBEFEE726000200EE
:1002F0007047000002480068C0F3403070470000BB
:10030000100802400B48006840F0040009490860EA
:100310000948006820F040600749086006480C3032
:10032000006820F0406040F0806003490C310860B4
:1003300070470000303802400008024001200A499E
:1003400008600FE0FFF7D6FF08490860084600681C
:1003500020B90548006808B100F02EF8034800688D
:1003600001490860EEE700000000002004000020C2
:100370000F48006840F001000D4908600D48006812
:1003800020F4406040F480600A49086008464068F4
:1003900020F0200048600846806820F4406040F467
:1003A000006088600846406940F02000486170475E
:1003B00030380240000002400348406980F02000CD
:1003C000014948617047000000000240034800688E
:1003D00040F47000014908607047000088ED00E0BB
:1003E000FFF7C6FFFFF78EFFFFF7A8FF4FF0407043
:1003F000E1EE100A70470000180400080000002019
:1004000008000000D40100082004000808000020B3
:1004100060060000F001000800000000000000007D
:040000050800019955
:00000001FF
