:020000040800F2
:10000000600600201D0200082502000827020008E3
:10001000290200082B0200082D0200080000000041
:100020000000000000000000000000002F02000897
:100030003102000800000000330200083502000809
:1000400037020008370200083702000837020008AC
:10005000370200083702000837020008370200089C
:10006000370200083702000837020008370200088C
:10007000370200083702000837020008370200087C
:1000800037020008370200083702000800000000AD
:10009000000000000000000000000000370200081F
:1000A000370200083702000837020008370200084C
:1000B000370200083702000837020008370200083C
:1000C000370200083702000837020008370200082C
:1000D000370200083702000837020008000000005D
:1000E000370200083702000837020008000000004D
:1000F00000000000000000000000000037020008BF
:10010000000000003702000837020008370200082C
:1001100000000000000000000000000000000000DF
:1001200037020008370200083702000837020008CB
:10013000370200080000000000000000000000007E
:10014000000000000000000000000000370200086E
:10015000370200083702000837020008370200089B
:10016000370200083702000800000000000000000D
:10017000000000000000000000000000000000007F
:10018000000000003702000800000000000000002E
:10019000370200083702000800F002F800F02EF8DD
:1001A0000AA090E8000C82448344AAF10107DA45D2
:1001B00001D100F023F8AFF2090EBAE80F0013F0F6
:1001C000010F18BFFB1A43F001031847BC010000E0
:1001D000CC0100000023002400250026103A28BF8F
:1001E00078C1FBD8520728BF30C148BF0B607047A9
:1001F0001FB500F0C3F81FBD10B510BD00F031F8F9
:100200001146FFF7F5FF00F0A7F800F04FF803B430
:10021000FFF7F2FF03BC00F057F8000009488047E1
:1002200009480047FEE7FEE7FEE7FEE7FEE7FEE7D8
:10023000FEE7FEE7FEE7FEE704480549054A064BF0
:100240007047000045030008990100086000002085
:1002500060060020600200206002002070477047A6
:100260007047754600F02CF8AE46050069465346C7
:1002700020F00700854618B020B5FFF7DDFFBDE888
:1002800020404FF000064FF000074FF000084FF0FD
:10029000000B21F00701AC46ACE8C009ACE8C0098E
:1002A000ACE8C009ACE8C0098D46704710B50446FB
:1002B000AFF300802046BDE81040FFF7A8BF000064
:1002C000004870470000002001491820ABBEFEE73F
:1002D00026000200704700000448006840F48000D7
:1002E00002490860024803490860704730380240FC
:1002F0008006000E7064024010B5114B1B6823F09D
:1003000001030F4C23600E4B083318601B1D19604E
:10031000231D1A601B1F1B6843F00103236000BFED
:10032000074B6C3B1B6803F02003002BF8D0044BF9
:10033000643B1B6843F02003014C643C236010BD08
:10034000706402400348006840F47000014908608E
:100350007047000088ED00E00FB5FFF7BDFF0D22EC
:10036000694602A0FFF7C8FF00BFFEE748656C6C56
:100370006F20776F726C6421000000004FF04070B6
:10038000E1EE100A7047000098030008000000200A
:0803900060060000D401000822
:040000050800019955
:00000001FF
